:100000000C945D000C9485000C9485000C94850084
:100010000C9485000C9485000C9485000C9485004C
:100020000C9485000C9485000C9485000C9485003C
:100030000C9485000C9485000C9485000C9485002C
:100040000C9412020C9485000C9482020C945C02B5
:100050000C9485000C9485000C9485000C9485000C
:100060000C9485000C9485000000000024002700FB
:100070002A0000000000250028002B0004040404CE
:100080000404040402020202020203030303030342
:10009000010204081020408001020408102001021F
:1000A00004081020000000080002010000030407FB
:1000B0000000000000000000630411241FBECFEF09
:1000C000D8E0DEBFCDBF11E0A0E0B1E0E4E1FCE0AC
:1000D00002C005900D92A634B107D9F721E0A6E43D
:1000E000B1E001C01D92A13FB207E1F710E0CDE5FC
:1000F000D0E004C02197FE010E94D104CC35D10785
:10010000C9F70E94B4020C9408060C94000090E019
:10011000FC01EC55FF4F2491FC01E057FF4F349157
:10012000FC01E458FF4FE491EE23C9F0222339F09B
:10013000233001F1A8F4213019F1223029F1F0E047
:10014000EE0FFF1FEE58FF4FA591B4918FB7F894B3
:10015000EC91611126C030953E233C938FBF0895EA
:100160002730A9F02830C9F0243049F78091800069
:100170008F7D03C0809180008F7780938000DFCFD8
:1001800084B58F7784BDDBCF84B58F7DFBCF809125
:10019000B0008F778093B000D2CF8091B0008F7D78
:1001A000F9CF3E2BDACF3FB7F89480915001909170
:1001B0005101A0915201B091530126B5A89B05C0F1
:1001C0002F3F19F00196A11DB11D3FBFBA2FA92FD6
:1001D000982F8827BC01CD01620F711D811D911DD3
:1001E00042E0660F771F881F991F4A95D1F708953F
:1001F000AF92BF92CF92DF92EF92FF920F931F9335
:10020000CF93DF936C017B018B01040F151FEB0172
:100210005E01AE18BF08C017D10759F06991D60129
:10022000ED91FC910190F081E02DC6010995892B9B
:1002300079F7C501DF91CF911F910F91FF90EF905A
:10024000DF90CF90BF90AF900895FC01538D448D07
:10025000252F30E0842F90E0821B930B541710F071
:10026000CF96089501970895FC01918D828D98177E
:1002700061F0A28DAE0FBF2FB11D5D968C91928D56
:100280009F5F9F73928F90E008958FEF9FEF089587
:10029000FC01918D828D981731F0828DE80FF11D50
:1002A000858D90E008958FEF9FEF0895FC01918D6B
:1002B000228D892F90E0805C9F4F821B91098F7364
:1002C0009927089584E591E00E94560121E0892B49
:1002D00009F420E0822F089580E090E0892B29F036
:1002E0000E94620181110C9400000895FC01A48D0C
:1002F000A80FB92FB11DA35ABF4F2C91848D90E048
:1003000001968F739927848FA689B7892C93A0892A
:10031000B1898C91837080648C93938D848D9813B4
:1003200006C00288F389E02D80818F7D8083089547
:10033000EF92FF920F931F93CF93DF93EC0181E035
:10034000888F9B8D8C8D98131AC0E889F9898081DC
:1003500085FF15C09FB7F894EE89FF896083E8890F
:10036000F98980818370806480839FBF81E090E001
:10037000DF91CF911F910F91FF90EF900895F62E8E
:100380000B8D10E00F5F1F4F0F731127E02E8C8D28
:100390008E110CC00FB607FCFACFE889F98980816D
:1003A00085FFF5CFCE010E947601F1CFEB8DEC0FEA
:1003B000FD2FF11DE35AFF4FF0829FB7F8940B8F8A
:1003C000EA89FB8980818062CFCFCF93DF93EC01F4
:1003D000888D8823B9F0AA89BB89E889F9898C912D
:1003E00085FD03C0808186FD0DC00FB607FCF7CFE9
:1003F0008C9185FFF2CF808185FFEDCFCE010E94E9
:100400007601E9CFDF91CF910895FC0101900020A2
:10041000E9F73197AF01481B590BBC0184E591E026
:100420000C94F8001F920F920FB60F9211242F9385
:100430003F938F939F93AF93BF9380914C01909183
:100440004D01A0914E01B0914F0130914B0123E03D
:10045000230F2D3758F50196A11DB11D20934B0197
:1004600080934C0190934D01A0934E01B0934F01A6
:100470008091500190915101A0915201B09153018E
:100480000196A11DB11D8093500190935101A0933D
:100490005201B0935301BF91AF919F918F913F91C2
:1004A0002F910F900FBE0F901F90189526E8230FE5
:1004B0000296A11DB11DD2CF1F920F920FB60F92BF
:1004C00011242F933F934F935F936F937F938F9359
:1004D0009F93AF93BF93EF93FF9384E591E00E94C6
:1004E0007601FF91EF91BF91AF919F918F917F9195
:1004F0006F915F914F913F912F910F900FBE0F9091
:100500001F9018951F920F920FB60F9211242F93E0
:100510008F939F93EF93FF93E0916401F0916501B6
:100520008081E0916A01F0916B0182FD1BC0908196
:1005300080916D018F5F8F7320916E01821741F062
:10054000E0916D01F0E0EC5AFE4F958F80936D01C4
:10055000FF91EF919F918F912F910F900FBE0F9070
:100560001F9018958081F4CFCF93DF93CDB7DEB77E
:10057000A1970FB6F894DEBF0FBECDBF789484B5B7
:10058000826084BD84B5816084BD85B5826085BD8F
:1005900085B5816085BD80916E00816080936E001D
:1005A000109281008091810082608093810080910F
:1005B00081008160809381008091800081608093C0
:1005C00080008091B10084608093B1008091B00080
:1005D00081608093B00080917A00846080937A007B
:1005E00080917A00826080937A0080917A008160A5
:1005F00080937A0080917A00806880937A001092CC
:10060000C100EDE9F0E02491E9E8F0E0849188236D
:1006100099F090E0880F991FFC01E859FF4FA591D0
:10062000B491FC01EE58FF4F859194918FB7F894E7
:10063000EC91E22BEC938FBFE0916401F0916501A6
:1006400082E08083E0916001F09161011082E0918D
:100650006201F09163018FEC808310926C01E09154
:100660006801F091690186E08083E0916601F09174
:100670006701808180618083E0916601F09167016C
:10068000808188608083E0916601F09167018081BC
:1006900080688083E0916601F091670180818F7DA1
:1006A000808382E191E00E94050283E391E00E9451
:1006B00005023AE0832E912CA12CB12C40E0242E8F
:1006C00040E0342E20E420937C0080917A00806406
:1006D00080937A0080917A0086FDFCCF809178002B
:1006E00000917900102F082F94E0000F111F9A95A8
:1006F000E1F7B801012E000C880B990B6B017C010E
:1007000022E0CC0CDD1CEE1CFF1C2A95D1F72091B9
:100710004701309148012901330F66087708C41456
:10072000D504E604F70474F40E940F052DEC3CECAC
:100730004CE45FE30E9473050E94D7047093480164
:100740006093470180914701909148019C0120519D
:10075000310920173107BCF48017910724F4109356
:100760004801009347018091460191E09093460132
:100770002091490130914A01882381F060E08DE0A9
:100780000E94870051C0C29708171907BCF7109242
:1007900046013093480120934701F0CF032E000C0F
:1007A000440B550B60E67AEE80E090E00E94B204C4
:1007B000690161E08DE00E94870086E391E00E947C
:1007C00005020D2C000CEE08FF08F7FE66C06DE276
:1007D00084E591E00E94980122273327A9012C1972
:1007E0003D094E095F0919A28E010F5D1F4FCA0115
:1007F000B901A50194010E949004605DF801629323
:100800008F01211531054105510589F701151105A4
:1008100019F0C8010E94050283E391E00E940502DD
:1008200010924A01109249010E94D3002B013C0111
:100830008CE3C82ED12CE12CF12C0E94D30064193A
:10084000750986099709683E734081059105A8F3EB
:10085000F1E0CF1AD108E108F10828EE420E23E0BA
:10086000521E611C711CC114D104E104F10429F76A
:100870008091490190914A01CC9690934A018093CE
:1008800049012114310409F41DCF0E94620188231B
:1008900009F418CF0E94000015CFA701960119A2F4
:1008A0008E010F5D1F4FCA01B901A50194010E947D
:1008B0009004605DF80162938F01211531054105B7
:1008C000510589F7A3CFE4E5F1E01382128288EEA7
:1008D00093E0A0E0B0E084839583A683B78384E0AF
:1008E00091E09183808385EC90E09587848784EC08
:1008F00090E09787868780EC90E0918B808B81ECED
:1009000090E0938B828B82EC90E0958B848B86ECCD
:1009100090E0978B868B118E128E138E148E089515
:10092000A1E21A2EAA1BBB1BFD010DC0AA1FBB1FF3
:10093000EE1FFF1FA217B307E407F50720F0A21B65
:10094000B30BE40BF50B661F771F881F991F1A94D2
:1009500069F760957095809590959B01AC01BD01FC
:10096000CF010895052E97FB1EF400940E94C90440
:1009700057FD07D00E94900407FC03D04EF40C945E
:10098000C90450954095309521953F4F4F4F5F4F8B
:10099000089590958095709561957F4F8F4F9F4FEB
:1009A0000895EE0FFF1F0590F491E02D09940E9429
:1009B000DE046894B1110C946D0508950E945205EF
:1009C00088F09F5798F0B92F9927B751B0F0E1F010
:1009D000660F771F881F991F1AF0BA95C9F714C0C0
:1009E000B13091F00E946C05B1E008950C946C0553
:1009F000672F782F8827B85F39F0B93FCCF38695F9
:100A000077956795B395D9F73EF490958095709555
:100A100061957F4F8F4F9F4F0895E89409C097FBD2
:100A20003EF490958095709561957F4F8F4F9F4FC5
:100A30009923A9F0F92F96E9BB279395F695879509
:100A400077956795B795F111F8CFFAF4BB0F11F4CC
:100A500060FF1BC06F5F7F4F8F4F9F4F16C0882373
:100A600011F096E911C0772321F09EE8872F762FA9
:100A700005C0662371F096E8862F70E060E02AF0EA
:100A80009A95660F771F881FDAF7880F96958795D6
:100A900097F9089557FD9058440F551F59F05F3F3F
:100AA00071F04795880F97FB991F61F09F3F79F090
:100AB00087950895121613061406551FF2CF469512
:100AC000F1DF08C0161617061806991FF1CF869594
:100AD0007105610508940895E894BB276627772778
:100AE000CB0197F908950E9486050C94F7050E94A2
:100AF000E90538F00E94F00520F0952311F00C94E0
:100B0000E0050C94E60511240C946D050E944A053D
:100B100070F3959FC1F3950F50E0551F629FF00150
:100B2000729FBB27F00DB11D639FAA27F00DB11D69
:100B3000AA1F649F6627B00DA11D661F829F2227F2
:100B4000B00DA11D621F739FB00DA11D621F839F79
:100B5000A00D611D221F749F3327A00D611D231F4F
:100B6000849F600D211D822F762F6A2F11249F579D
:100B700050409AF0F1F088234AF0EE0FFF1FBB1FA0
:100B8000661F771F881F91505040A9F79E3F51055F
:100B900080F00C94E0050C946D055F3FE4F3983E03
:100BA000D4F3869577956795B795F795E7959F5F09
:100BB000C1F7FE2B880F911D9695879597F908959B
:100BC00097F99F6780E870E060E008959FEF80EC00
:100BD000089500240A9416161706180609060895A3
:100BE00000240A9412161306140605060895092E09
:100BF0000394000C11F4882352F0BB0F40F4BF2B78
:100C000011F460FF04C06F5F7F4F8F4F9F4F0895B7
:040C1000F894FFCF86
:100C1400000000009801F8002501E50156013401A7
:100C24004801486561727462656174206465746525
:100C34006374696F6E2073616D706C6520636F649B
:100C4400652E000D0A0050756C736520646574652B
:060C5400637465643A00C0
:00000001FF
